{
  "_format": "hh-sol-artifact-1",
  "contractName": "ETHTransfer",
  "sourceName": "contracts/deposit.sol",
  "abi": [
    {
      "anonymous": false,
      "inputs": [
        {
          "indexed": true,
          "internalType": "address",
          "name": "from",
          "type": "address"
        },
        {
          "indexed": false,
          "internalType": "uint256",
          "name": "amount",
          "type": "uint256"
        }
      ],
      "name": "Deposit",
      "type": "event"
    },
    {
      "anonymous": false,
      "inputs": [
        {
          "indexed": true,
          "internalType": "address",
          "name": "to",
          "type": "address"
        },
        {
          "indexed": false,
          "internalType": "uint256",
          "name": "amount",
          "type": "uint256"
        }
      ],
      "name": "Withdrawal",
      "type": "event"
    },
    {
      "inputs": [],
      "name": "deposit",
      "outputs": [],
      "stateMutability": "payable",
      "type": "function"
    },
    {
      "inputs": [],
      "name": "getBalance",
      "outputs": [
        {
          "internalType": "uint256",
          "name": "",
          "type": "uint256"
        }
      ],
      "stateMutability": "view",
      "type": "function"
    },
    {
      "inputs": [],
      "name": "withdraw",
      "outputs": [],
      "stateMutability": "nonpayable",
      "type": "function"
    },
    {
      "inputs": [],
      "name": "withdrawer",
      "outputs": [
        {
          "internalType": "address",
          "name": "",
          "type": "address"
        }
      ],
      "stateMutability": "view",
      "type": "function"
    },
    {
      "stateMutability": "payable",
      "type": "receive"
    }
  ],
  "bytecode": "0x608060405234801561001057600080fd5b50610648806100206000396000f3fe6080604052600436106100435760003560e01c806312065fe01461009d5780633ccfd60b146100c8578063cdc18424146100df578063d0e30db01461010a57610098565b36610098573373ffffffffffffffffffffffffffffffffffffffff167fe1fffcc4923d04b559f4d29a8bfc6cda04eb5b0d3c460751c2402c5c5cc9109c3460405161008e919061059f565b60405180910390a2005b600080fd5b3480156100a957600080fd5b506100b2610114565b6040516100bf919061059f565b60405180910390f35b3480156100d457600080fd5b506100dd61011c565b005b3480156100eb57600080fd5b506100f461030c565b6040516101019190610504565b60405180910390f35b610112610324565b005b600047905090565b7370070f01aa27fdf096e7d01d2e37770c09cbb41f73ffffffffffffffffffffffffffffffffffffffff163373ffffffffffffffffffffffffffffffffffffffff161461019e576040517f08c379a00000000000000000000000000000000000000000000000000000000081526004016101959061051f565b60405180910390fd5b6000479050600081116101e6576040517f08c379a00000000000000000000000000000000000000000000000000000000081526004016101dd9061057f565b60405180910390fd5b60007370070f01aa27fdf096e7d01d2e37770c09cbb41f73ffffffffffffffffffffffffffffffffffffffff1682604051610220906104ef565b60006040518083038185875af1925050503d806000811461025d576040519150601f19603f3d011682016040523d82523d6000602084013e610262565b606091505b50509050806102a6576040517f08c379a000000000000000000000000000000000000000000000000000000000815260040161029d9061053f565b60405180910390fd5b7370070f01aa27fdf096e7d01d2e37770c09cbb41f73ffffffffffffffffffffffffffffffffffffffff167f7fcf532c15f0a6db0bd6d0e038bea71d30d808c7d98cb3bf7268a95bf5081b6583604051610300919061059f565b60405180910390a25050565b7370070f01aa27fdf096e7d01d2e37770c09cbb41f81565b60003411610367576040517f08c379a000000000000000000000000000000000000000000000000000000000815260040161035e9061055f565b60405180910390fd5b3373ffffffffffffffffffffffffffffffffffffffff167fe1fffcc4923d04b559f4d29a8bfc6cda04eb5b0d3c460751c2402c5c5cc9109c346040516103ad919061059f565b60405180910390a2565b6103c0816105d6565b82525050565b60006103d3601a836105c5565b91507f4e6f7420617574686f72697a656420746f2077697468647261770000000000006000830152602082019050919050565b6000610413600f836105c5565b91507f5472616e73666572206661696c656400000000000000000000000000000000006000830152602082019050919050565b6000610453600d836105c5565b91507f56616c756520746f6f206c6f77000000000000000000000000000000000000006000830152602082019050919050565b60006104936012836105c5565b91507f4e6f2045544820746f20776974686472617700000000000000000000000000006000830152602082019050919050565b60006104d36000836105ba565b9150600082019050919050565b6104e981610608565b82525050565b60006104fa826104c6565b9150819050919050565b600060208201905061051960008301846103b7565b92915050565b60006020820190508181036000830152610538816103c6565b9050919050565b6000602082019050818103600083015261055881610406565b9050919050565b6000602082019050818103600083015261057881610446565b9050919050565b6000602082019050818103600083015261059881610486565b9050919050565b60006020820190506105b460008301846104e0565b92915050565b600081905092915050565b600082825260208201905092915050565b60006105e1826105e8565b9050919050565b600073ffffffffffffffffffffffffffffffffffffffff82169050919050565b600081905091905056fea2646970667358221220d2634a31a539b6bf80ae7a3c7f9fa750c748da3a69d86ffa340a1a0415f65fe064736f6c63430008000033",
  "linkReferences": {},
  "deployedLinkReferences": {}
}