{
  "_format": "hh-sol-artifact-1",
  "contractName": "ETHTransfer",
  "sourceName": "contracts/deposit.sol",
  "abi": [
    {
      "anonymous": false,
      "inputs": [
        {
          "indexed": true,
          "internalType": "address",
          "name": "from",
          "type": "address"
        },
        {
          "indexed": false,
          "internalType": "uint256",
          "name": "amount",
          "type": "uint256"
        }
      ],
      "name": "Deposit",
      "type": "event"
    },
    {
      "anonymous": false,
      "inputs": [
        {
          "indexed": true,
          "internalType": "address",
          "name": "to",
          "type": "address"
        },
        {
          "indexed": false,
          "internalType": "uint256",
          "name": "amount",
          "type": "uint256"
        }
      ],
      "name": "Withdrawal",
      "type": "event"
    },
    {
      "inputs": [],
      "name": "deposit",
      "outputs": [],
      "stateMutability": "payable",
      "type": "function"
    },
    {
      "inputs": [],
      "name": "getBalance",
      "outputs": [
        {
          "internalType": "uint256",
          "name": "",
          "type": "uint256"
        }
      ],
      "stateMutability": "view",
      "type": "function"
    },
    {
      "inputs": [],
      "name": "withdraw",
      "outputs": [],
      "stateMutability": "nonpayable",
      "type": "function"
    },
    {
      "inputs": [],
      "name": "withdrawer",
      "outputs": [
        {
          "internalType": "address",
          "name": "",
          "type": "address"
        }
      ],
      "stateMutability": "view",
      "type": "function"
    },
    {
      "stateMutability": "payable",
      "type": "receive"
    }
  ],
  "bytecode": "0x608060405234801561001057600080fd5b5061064f806100206000396000f3fe6080604052600436106100435760003560e01c806312065fe01461009d5780633ccfd60b146100c8578063cdc18424146100df578063d0e30db01461010a57610098565b36610098573373ffffffffffffffffffffffffffffffffffffffff167fe1fffcc4923d04b559f4d29a8bfc6cda04eb5b0d3c460751c2402c5c5cc9109c3460405161008e91906105a6565b60405180910390a2005b600080fd5b3480156100a957600080fd5b506100b2610114565b6040516100bf91906105a6565b60405180910390f35b3480156100d457600080fd5b506100dd61011c565b005b3480156100eb57600080fd5b506100f461030c565b604051610101919061050b565b60405180910390f35b610112610324565b005b600047905090565b7370070f01aa27fdf096e7d01d2e37770c09cbb41f73ffffffffffffffffffffffffffffffffffffffff163373ffffffffffffffffffffffffffffffffffffffff161461019e576040517f08c379a000000000000000000000000000000000000000000000000000000000815260040161019590610526565b60405180910390fd5b6000479050600081116101e6576040517f08c379a00000000000000000000000000000000000000000000000000000000081526004016101dd90610566565b60405180910390fd5b60007370070f01aa27fdf096e7d01d2e37770c09cbb41f73ffffffffffffffffffffffffffffffffffffffff1682604051610220906104f6565b60006040518083038185875af1925050503d806000811461025d576040519150601f19603f3d011682016040523d82523d6000602084013e610262565b606091505b50509050806102a6576040517f08c379a000000000000000000000000000000000000000000000000000000000815260040161029d90610546565b60405180910390fd5b7370070f01aa27fdf096e7d01d2e37770c09cbb41f73ffffffffffffffffffffffffffffffffffffffff167f7fcf532c15f0a6db0bd6d0e038bea71d30d808c7d98cb3bf7268a95bf5081b658360405161030091906105a6565b60405180910390a25050565b7370070f01aa27fdf096e7d01d2e37770c09cbb41f81565b6658d15e1762800034101561036e576040517f08c379a000000000000000000000000000000000000000000000000000000000815260040161036590610586565b60405180910390fd5b3373ffffffffffffffffffffffffffffffffffffffff167fe1fffcc4923d04b559f4d29a8bfc6cda04eb5b0d3c460751c2402c5c5cc9109c346040516103b491906105a6565b60405180910390a2565b6103c7816105dd565b82525050565b60006103da601a836105cc565b91507f4e6f7420617574686f72697a656420746f2077697468647261770000000000006000830152602082019050919050565b600061041a600f836105cc565b91507f5472616e73666572206661696c656400000000000000000000000000000000006000830152602082019050919050565b600061045a6012836105cc565b91507f4e6f2045544820746f20776974686472617700000000000000000000000000006000830152602082019050919050565b600061049a6000836105c1565b9150600082019050919050565b60006104b4601c836105cc565b91507f4d696e696d756d206465706f73697420697320302e30323520455448000000006000830152602082019050919050565b6104f08161060f565b82525050565b60006105018261048d565b9150819050919050565b600060208201905061052060008301846103be565b92915050565b6000602082019050818103600083015261053f816103cd565b9050919050565b6000602082019050818103600083015261055f8161040d565b9050919050565b6000602082019050818103600083015261057f8161044d565b9050919050565b6000602082019050818103600083015261059f816104a7565b9050919050565b60006020820190506105bb60008301846104e7565b92915050565b600081905092915050565b600082825260208201905092915050565b60006105e8826105ef565b9050919050565b600073ffffffffffffffffffffffffffffffffffffffff82169050919050565b600081905091905056fea2646970667358221220c7e5b6dc93e7127d86bd60ffd4cc3ae3f20ddbcc2148fbbac1dc4a6008b29f1f64736f6c63430008000033",
  "linkReferences": {},
  "deployedLinkReferences": {}
}