{
  "_format": "hh-sol-artifact-1",
  "contractName": "ETHTransfer",
  "sourceName": "contracts/deposit.sol",
  "abi": [
    {
      "anonymous": false,
      "inputs": [
        {
          "indexed": true,
          "internalType": "address",
          "name": "from",
          "type": "address"
        },
        {
          "indexed": false,
          "internalType": "uint256",
          "name": "amount",
          "type": "uint256"
        }
      ],
      "name": "Deposit",
      "type": "event"
    },
    {
      "anonymous": false,
      "inputs": [
        {
          "indexed": true,
          "internalType": "address",
          "name": "to",
          "type": "address"
        },
        {
          "indexed": false,
          "internalType": "uint256",
          "name": "amount",
          "type": "uint256"
        }
      ],
      "name": "Withdrawal",
      "type": "event"
    },
    {
      "inputs": [],
      "name": "deposit",
      "outputs": [],
      "stateMutability": "payable",
      "type": "function"
    },
    {
      "inputs": [],
      "name": "getBalance",
      "outputs": [
        {
          "internalType": "uint256",
          "name": "",
          "type": "uint256"
        }
      ],
      "stateMutability": "view",
      "type": "function"
    },
    {
      "inputs": [],
      "name": "owner",
      "outputs": [
        {
          "internalType": "address",
          "name": "",
          "type": "address"
        }
      ],
      "stateMutability": "view",
      "type": "function"
    },
    {
      "inputs": [],
      "name": "withdraw",
      "outputs": [],
      "stateMutability": "nonpayable",
      "type": "function"
    },
    {
      "stateMutability": "payable",
      "type": "receive"
    }
  ],
  "bytecode": "0x608060405273919510c65290372edeae400f70db13329e64529d6000806101000a81548173ffffffffffffffffffffffffffffffffffffffff021916908373ffffffffffffffffffffffffffffffffffffffff16021790555034801561006457600080fd5b50610679806100746000396000f3fe6080604052600436106100435760003560e01c806312065fe01461009d5780633ccfd60b146100c85780638da5cb5b146100df578063d0e30db01461010a57610098565b36610098573373ffffffffffffffffffffffffffffffffffffffff167fe1fffcc4923d04b559f4d29a8bfc6cda04eb5b0d3c460751c2402c5c5cc9109c3460405161008e91906105d0565b60405180910390a2005b600080fd5b3480156100a957600080fd5b506100b2610114565b6040516100bf91906105d0565b60405180910390f35b3480156100d457600080fd5b506100dd61011c565b005b3480156100eb57600080fd5b506100f4610331565b6040516101019190610535565b60405180910390f35b610112610355565b005b600047905090565b60008054906101000a900473ffffffffffffffffffffffffffffffffffffffff1673ffffffffffffffffffffffffffffffffffffffff163373ffffffffffffffffffffffffffffffffffffffff16146101aa576040517f08c379a00000000000000000000000000000000000000000000000000000000081526004016101a190610570565b60405180910390fd5b6000479050600081116101f2576040517f08c379a00000000000000000000000000000000000000000000000000000000081526004016101e9906105b0565b60405180910390fd5b60008060009054906101000a900473ffffffffffffffffffffffffffffffffffffffff1673ffffffffffffffffffffffffffffffffffffffff168260405161023990610520565b60006040518083038185875af1925050503d8060008114610276576040519150601f19603f3d011682016040523d82523d6000602084013e61027b565b606091505b50509050806102bf576040517f08c379a00000000000000000000000000000000000000000000000000000000081526004016102b690610550565b60405180910390fd5b60008054906101000a900473ffffffffffffffffffffffffffffffffffffffff1673ffffffffffffffffffffffffffffffffffffffff167f7fcf532c15f0a6db0bd6d0e038bea71d30d808c7d98cb3bf7268a95bf5081b658360405161032591906105d0565b60405180910390a25050565b60008054906101000a900473ffffffffffffffffffffffffffffffffffffffff1681565b60003411610398576040517f08c379a000000000000000000000000000000000000000000000000000000000815260040161038f90610590565b60405180910390fd5b3373ffffffffffffffffffffffffffffffffffffffff167fe1fffcc4923d04b559f4d29a8bfc6cda04eb5b0d3c460751c2402c5c5cc9109c346040516103de91906105d0565b60405180910390a2565b6103f181610607565b82525050565b6000610404600f836105f6565b91507f5472616e73666572206661696c656400000000000000000000000000000000006000830152602082019050919050565b6000610444600d836105f6565b91507f4e6f7420746865206f776e6572000000000000000000000000000000000000006000830152602082019050919050565b6000610484600d836105f6565b91507f56616c756520746f6f206c6f77000000000000000000000000000000000000006000830152602082019050919050565b60006104c46012836105f6565b91507f4e6f2045544820746f20776974686472617700000000000000000000000000006000830152602082019050919050565b60006105046000836105eb565b9150600082019050919050565b61051a81610639565b82525050565b600061052b826104f7565b9150819050919050565b600060208201905061054a60008301846103e8565b92915050565b60006020820190508181036000830152610569816103f7565b9050919050565b6000602082019050818103600083015261058981610437565b9050919050565b600060208201905081810360008301526105a981610477565b9050919050565b600060208201905081810360008301526105c9816104b7565b9050919050565b60006020820190506105e56000830184610511565b92915050565b600081905092915050565b600082825260208201905092915050565b600061061282610619565b9050919050565b600073ffffffffffffffffffffffffffffffffffffffff82169050919050565b600081905091905056fea264697066735822122021cc0940af9c11093c358ab76b1bd7e2e4fb3cf6fe18ad58cd2cd79518b916ad64736f6c63430008000033",
  "linkReferences": {},
  "deployedLinkReferences": {}
}